:100000000C9462000C948A000C948A000C948A0070
:100010000C948A000C948A000C948A000C948A0038
:100020000C948A000C948A000C948A000C948A0028
:100030000C948A000C948A000C948A000C948A0018
:100040000C9423080C948A000C9493080C946D086B
:100050000C948A000C948A000C948A000C948A00F8
:100060000C9404070C948A00000000002300260072
:10007000290000000000240027002A0000000000E2
:10008000250028002B0004040404040404040202D4
:100090000202020203030303030301020408102007
:1000A0004080010204081020010204081020000012
:1000B0000008000201000003040700000000000027
:1000C0000000C50811241FBECFEFD8E0DEBFCDBFB2
:1000D00012E0A0E0B1E0E2E9FFE102C005900D927C
:1000E000A632B107D9F723E0A6E2B2E001C01D9223
:1000F000AA3AB207E1F710E0C2E6D0E004C02197C7
:10010000FE010E94CF0DC136D107C9F70E940E092A
:100110000C94C70F0C9400002091A402260F3327E3
:10012000331F21323105ECF42091CA02FC0190E02A
:1001300080E0243069F082E00895A091A40221912A
:10014000AC014E575D4FA40FB52FB11D2C930196F6
:10015000861798F38091A402680F6093A40280E050
:10016000089581E00895089508950895E091790231
:1001700080917802E81730F4F0E0E85AFD4F808172
:1001800090E008958FEF9FEF08959091790280910C
:1001900078022FEF3FEF981748F4E92FF0E0E85A84
:1001A000FD4F208130E09F5F90937902C90108954F
:1001B0008091780290917902891B990B0895CF92D2
:1001C000DF92EF92FF920F931F93CF93DF937C0107
:1001D000CB018A0120915702222389F0EB016B01A8
:1001E000C40ED51ECC15DD0569F06991D701ED91DE
:1001F000FC910190F081E02DC7010995F3CF642FA8
:100200000E948C00C801DF91CF911F910F91FF9048
:10021000EF90DF90CF900895CF93DF931F92CDB7EB
:10022000DEB76983209157022223F9F020917A02E8
:10023000203258F021E030E0FC013383228390E04B
:1002400080E00F90DF91CF91089580917B02E82F9D
:10025000F0E0E95CFD4F998190838F5F80937B0292
:1002600080937A0281E090E0ECCF61E0CE010196CC
:100270000E948C00F7CF833081F028F4813099F010
:100280008230A9F008958730A9F08830C9F0843011
:10029000B1F4809180008F7D03C0809180008F77C2
:1002A00080938000089584B58F7784BD089584B5C8
:1002B0008F7DFBCF8091B0008F778093B000089541
:1002C0008091B0008F7DF9CF1F93CF93DF93282FBC
:1002D00030E0F901E255FF4F8491F901E656FF4FF6
:1002E000D491F901EA57FF4FC491CC23A9F0162FFE
:1002F00081110E943B01EC2FF0E0EE0FFF1FE4584C
:10030000FF4FA591B4918FB7F894EC91111108C0EB
:10031000D095DE23DC938FBFDF91CF911F9108959D
:10032000DE2BF8CF1092CA0281E08093CC021092AB
:10033000CB0261E082E10E94640161E083E10E94FE
:100340006401E9EBF0E080818E7F808380818D7F86
:10035000808388E48093B80085E48093BC0008958E
:10036000CF93DF9391E0909381028823B9F0C091FD
:10037000B800D091BA008091BC008A7B8093BC0009
:1003800060E082E10E94640160E083E10E94640118
:100390000E949201D093BA00C093B800DF91CF9130
:1003A0000895CF93DF9390E0FC01E656FF4F249130
:1003B0008A579F4FFC0184918823D1F090E0880FE9
:1003C000991FFC01EE58FF4FA591B491FC01E45830
:1003D000FF4FC591D49161110EC09FB7F8948C91D5
:1003E000E22FE0958E238C932881E223E8839FBF40
:1003F000DF91CF9108958FB7F894EC91E22BEC93B5
:100400008FBFF6CF8E3008F08E5087708064809357
:100410007C0080917A00806480937A0080917A00D9
:1004200086FDFCCF809178009091790008953FB7C8
:10043000F8948091330290913402A0913502B091EA
:10044000360226B5A89B05C02F3F19F00196A11DC5
:10045000B11D3FBFBA2FA92F982F8827BC01CD010E
:10046000620F711D811D911D42E0660F771F881F6D
:10047000991F4A95D1F708958F929F92AF92BF929C
:10048000CF92DF92EF92FF924B015C010E94170224
:100490006B017C010E9417026C197D098E099F096E
:1004A000683E734081059105A8F321E0821A910806
:1004B000A108B10888EEC80E83E0D81EE11CF11C2B
:1004C00081149104A104B10429F7FF90EF90DF900B
:1004D000CF90BF90AF909F908F900895AF92BF92B2
:1004E000CF92DF92EF92FF920F931F93CF93DF9300
:1004F0006C017B018B01040F151FEB015E01AE182F
:10050000BF08C017D10759F06991D601ED91FC9150
:100510000190F081E02DC6010995892B79F7C5017D
:10052000DF91CF911F910F91FF90EF90DF90CF90CF
:10053000BF90AF900895FC01538D448D252F30E07E
:10054000842F90E0821B930B541710F0CF960895E0
:1005500001970895FC01918D828D981761F0A28D0D
:10056000AE0FBF2FB11D5D968C91928D9F5F9F73D3
:10057000928F90E008958FEF9FEF0895FC01918D89
:10058000828D981731F0828DE80FF11D858D90E0F6
:1005900008958FEF9FEF0895FC01918D228D892F93
:1005A00090E0805C9F4F821B91098F73992708957B
:1005B0008CEF92E00E94CC0221E0892B09F420E02C
:1005C000822F089580E090E0892B29F00E94D802C4
:1005D00081110C9400000895FC01A48DA80FB92F7F
:1005E000B11DA35ABF4F2C91848D90E001968F735B
:1005F0009927848FA689B7892C93A089B1898C917A
:10060000837080648C93938D848D981306C00288C8
:10061000F389E02D80818F7D80830895EF92FF9292
:100620000F931F93CF93DF93EC0181E0888F9B8D15
:100630008C8D98131AC0E889F989808185FF15C0CF
:100640009FB7F894EE89FF896083E889F9898081F2
:100650008370806480839FBF81E090E0DF91CF91C1
:100660001F910F91FF90EF900895F62E0B8D10E0E3
:100670000F5F1F4F0F731127E02E8C8D8E110CC052
:100680000FB607FCFACFE889F989808185FFF5CF9D
:10069000CE010E94EC02F1CFEB8DEC0FFD2FF11D8E
:1006A000E35AFF4FF0829FB7F8940B8FEA89FB89DA
:1006B00080818062CFCFCF93DF93EC01888D882338
:1006C000B9F0AA89BB89E889F9898C9185FD03C0B5
:1006D000808186FD0DC00FB607FCF7CF8C9185FF9A
:1006E000F2CF808185FFEDCFCE010E94EC02E9CFF1
:1006F000DF91CF910895CF92DF92EF92FF920F9307
:100700001F93CF93DF93FC01C48121E02093570214
:10071000C093260210927B0210927A028485682B85
:1007200080EF92E00E940C01D0917A02D13208F061
:1007300092C00E9417026B017C018091CA02811154
:1007400065C082E08093CA0281E08093CC028FEF83
:100750008093C9021092EE02D093ED02A7E3B2E0BB
:10076000EDECF2E080E0D81385C01092EF028091AA
:10077000EF02CC0FC82BC093EF028091CB028130E7
:1007800009F07CC01092CB020E9417026B017C0121
:100790008091EF028093BB0080917D0290917E0258
:1007A000A0917F02B0918002892B8A2B8B2B99F02C
:1007B0000E94170200917D0210917E0220917F021B
:1007C000309180026C197D098E099F090617170761
:1007D00028073907E0F18091BC0083FDD9CF85EC73
:1007E0008093BC000E9417026B017C018091CA02B9
:1007F000823009F445C08091C9028F3F61F1809138
:10080000C902803241F18091C90225C080917D02E8
:1008100090917E02A0917F02B0918002892B8A2B59
:100820008B2B09F48ACF0E94170200917D02109150
:100830007E0220917F02309180026C197D098E0921
:100840009F09061717072807390708F076CF809108
:100850007C020E94B00110927B0210927A021092E8
:100860005702DF91CF911F910F91FF90EF90DF9092
:10087000CF9008959D9191938F5F75CF85EEB0CF06
:1008800080917D0290917E02A0917F02B0918002C2
:10089000892B8A2B8B2B09F4A9CF0E941702009178
:1008A0007D0210917E0220917F02309180026C19AE
:1008B0007D098E099F09061717072807390708F0D1
:1008C00095CFC5CF089590E080E0089585ED8093A1
:1008D000BC0080917D0290917E02A0917F02B09138
:1008E00080020796A11DB11D23E0B695A7959795A7
:1008F00087952A95D1F72091BC0024FD03C0109262
:10090000CA02089540917D0250917E0260917F025B
:1009100070918002452B462B472B69F30097A10568
:10092000B10541F025E32A95F1F700000197A109EF
:10093000B109E1CF80917C020C94B0010F931F9319
:10094000CF938C01C62F0E947B036C2F6460C8017B
:100950000E947B036C2F6B7FC8010E947B0383EC9A
:1009600090E00197F1F7CF911F910F9108950F93A8
:100970001F93CF93DF938C01D62FC42F607F642BFE
:100980000E949E0480E1D89FB00111246C2BC80105
:10099000DF91CF911F910F910C949E04CF93DF9321
:1009A000CDB7DEB728970FB6F894DEBF0FBECDBF28
:1009B00098E0E6E5F1E0DE01119601900D929A953E
:1009C000E1F79091A103961710F46FEF690F262FAE
:1009D00030E0220F331F41E050E04C0F5D1F240F29
:1009E000351FF9016081680F606840E089E993E094
:1009F00028960FB6F894DEBF0FBECDBFDF91CF9122
:100A00000C94B70441E00E94B70481E090E008959F
:100A10000F931F93CF93DF93EC0188819981009707
:100A200059F02A813B812617370730F081E0DF91AA
:100A3000CF911F910F9108958B016F5F7F4F0E949F
:100A4000FA0E009759F0998388831B830A832C81BF
:100A50003D81232B59F7FC011082E8CF80E0E7CFDE
:100A6000EF92FF920F931F93CF93DF936115710560
:100A700041F480E0DF91CF911F910F91FF90EF90B3
:100A8000089541155105B1F07B01EC010C811D81E8
:100A9000040F151FB8010E940805882351F328810F
:100AA00039818C819D81B701820F931F0E94C00FF5
:100AB0001D830C8381E0DECFCF93DF93EC0188812F
:100AC0009981009711F00E94710E198218821D827F
:100AD0001C821B821A82DF91CF910895CF93DF93FE
:100AE000EC01FB0101900020E9F73197AF01461BB3
:100AF000570B0E943005811103C0CE010E945C0596
:100B0000CE01DF91CF910895CF93DF93EC01FB01EC
:100B100044815581608171810E943005811103C03B
:100B2000CE010E945C05CE01DF91CF910895EF9236
:100B3000FF920F931F93CF93DF93EC017B018A0108
:100B4000BA010E94080581110BC0CE010E945C050C
:100B5000CE01DF91CF911F910F91FF90EF900895FB
:100B60001D830C83B701888199810E94C00FF0CF4B
:100B7000EF92FF920F931F93CF93DF93CDB7DEB722
:100B8000A2970FB6F894DEBF0FBECDBF8C01CB018C
:100B9000BA01F80111821082138212821582148226
:100BA0002AE0AE014F5F5F4F7A010E94BA0CF70155
:100BB00001900020E9F73197AF014E195F09B701A5
:100BC000C8010E949705A2960FB6F894DEBF0FBE2B
:100BD000CDBFDF91CF911F910F91FF90EF900895BE
:100BE000EF92FF920F931F93CF93DF93CDB7DEB7B2
:100BF00062970FB6F894DEBF0FBECDBF8C01CB015C
:100C0000F8011182108213821282158214824AE046
:100C10009E012F5F3F4F7901B9010E94AF0CF70190
:100C200001900020E9F73197AF014E195F09B70134
:100C3000C8010E94970562960FB6F894DEBF0FBEFA
:100C4000CDBFDF91CF911F910F91FF90EF9008954D
:100C5000FB01DC0111961C921E9213961C921E92AF
:100C6000129715961C921E9214978617970749F0B3
:100C7000608171816115710521F0448155810C9469
:100C800097050895FC011182108213821282158249
:100C90001482FB0101900020E9F73197AF01461B58
:100CA000570B0C949705FC0180819181009711F0FE
:100CB0000C94710E08958F929F92AF92BF92CF9233
:100CC000DF92EF92FF920F931F93CF93DF93CDB7F5
:100CD000DEB7C055D1090FB6F894DEBF0FBECDBF49
:100CE0004B015A01CDB6DEB620E5EEE5F1E0DE01BE
:100CF000119601900D922A95E1F7FC01248135812E
:100D00002F5F3F4F4DB75EB7421B530B0FB6F894A2
:100D10005EBF0FBE4DBF0DB71EB70F5F1F4F608187
:100D20007181C8010E94C00FD80184E1889DA00193
:100D3000899D500D11244A0D5B1D90E080E0F80163
:100D400001900020E9F73197E01BF10B8E179F0708
:100D500068F42D91FC01E40FF51F61E070E06C0F69
:100D60007D1FE60FF71F20830196E9CFCE01019684
:100D70004C0180E0A82E81E0B82EF12C10E000E0BC
:100D8000F401E00FF11FE080F501E00FF11F808119
:100D9000E81649F06F2D802F0E94CE046E2D89E950
:100DA00093E00E9402050F5F1F4F0431110541F7C8
:100DB00094E1890E911CE4E1AE0EB11CF394F4E0D1
:100DC000FF12DCCF80E5FE013196A0E0B1E001909A
:100DD0000D928A95E1F70FB6F894DEBE0FBECDBE38
:100DE000C05BDF4F0FB6F894DEBF0FBECDBFDF9103
:100DF000CF911F910F91FF90EF90DF90CF90BF9018
:100E0000AF909F908F9008951F920F920FB60F9200
:100E100011242F933F934F935F936F937F938F93FF
:100E20009F93AF93BF93EF93FF938091B900887F17
:100E3000803609F44AC0F0F5883209F4A7C018F5E5
:100E4000803109F49BC0B8F4882309F4F9C08830D4
:100E500009F494C0FF91EF91BF91AF919F918F9151
:100E60007F916F915F914F913F912F910F900FBEA6
:100E70000F901F901895883109F488C0803251F77F
:100E80008093C90214C0803409F49DC040F48033BB
:100E9000B9F38833F9F68093C90285ECB0C0803588
:100EA00009F485C0883509F496C0883499F60E9403
:100EB0006604D0CF883909F48CC038F5883729F01A
:100EC00050F4883611F0803729F683E08093CA0207
:100ED0001092C80257C0883809F47BC0803919F0D5
:100EE000803809F0B7CF8091C802803208F071C015
:100EF000E091C80281E08E0F8093C8028091BB0010
:100F0000F0E0E855FD4F80833DC0803B39F0E0F4D0
:100F1000803A09F479C0883A09F09CCF84E0809344
:100F2000CA021092A5021092A402E091A202F091CE
:100F3000A30209958091A40281110FC081E08093E2
:100F4000A4021092820209C0803C09F4A6CF883C1A
:100F500009F4A3CF883B09F07DCFE091A50281E0A1
:100F60008E0F8093A502F0E0EE57FD4F80818093B5
:100F7000BB009091A5028091A40229C08091EF024C
:100F80008093BB0085EC8093BC0064CF9091EE020F
:100F90008091ED02981758F5E091EE0281E08E0FF6
:100FA0008093EE02F0E0E353FD4F8081E9CFE091C2
:100FB000EE0281E08E0F8093EE028091BB00F0E0A4
:100FC000E353FD4F80839091EE028091ED029817DC
:100FD000C8F285E8D8CFE091EE0281E08E0F8093D1
:100FE000EE028091BB00F0E0E353FD4F80838091DF
:100FF000CC0281115CCF81E08093CB0284EA8093A4
:10100000BC001092CA0226CF85EC8093BC001092DF
:10101000CA028091C802803230F4E091C802F0E048
:10102000E855FD4F10826091C80270E0E091A60281
:10103000F091A70288EA92E009951092C8020ACFBF
:101040001092C90234CF1F920F920FB60F92112443
:101050002F933F938F939F93AF93BF9380912F02D2
:1010600090913002A0913102B091320230912E0263
:1010700023E0230F2D3758F50196A11DB11D2093B4
:101080002E0280932F0290933002A0933102B093EE
:1010900032028091330290913402A0913502B091D6
:1010A00036020196A11DB11D809333029093340244
:1010B000A0933502B0933602BF91AF919F918F916B
:1010C0003F912F910F900FBE0F901F90189526E81B
:1010D000230F0296A11DB11DD2CF1F920F920FB602
:1010E0000F9211242F933F934F935F936F937F93AE
:1010F0008F939F93AF93BF93EF93FF938CEF92E007
:101100000E94EC02FF91EF91BF91AF919F918F915F
:101110007F916F915F914F913F912F910F900FBEF3
:101120000F901F9018951F920F920FB60F921124D7
:101130002F938F939F93EF93FF93E0910C03F09184
:101140000D038081E0911203F091130382FD1BC017
:101150009081809115038F5F8F7320911603821702
:1011600041F0E0911503F0E0E450FD4F958F80933E
:101170001503FF91EF919F918F912F910F900FBECB
:101180000F901F9018958081F4CFE0EFF2E013826A
:10119000128288EE93E0A0E0B0E084839583A6837A
:1011A000B78322EB31E031832083ECEFF2E013824E
:1011B000128284839583A683B78384EC91E0918324
:1011C000808385EC90E09587848784EC90E0978716
:1011D000868780EC90E0918B808B81EC90E0938B04
:1011E000828B82EC90E0958B848B86EC90E0978BE1
:1011F000868B118E128E138E148EE9E9F3E0138222
:10120000128286ED91E091838083118687E2848348
:1012100084E1828784E0838714860895CF93DF93E7
:10122000CDB7DEB7E6970FB6F894DEBF0FBECDBFE1
:10123000789484B5826084BD84B5816084BD85B5B1
:10124000826085BD85B5816085BD80916E008160BD
:1012500080936E0010928100809181008260809363
:101260008100809181008160809381008091800065
:101270008160809380008091B10084608093B10090
:101280008091B00081608093B00080917A0084608A
:1012900080937A0080917A00826080937A008091B6
:1012A0007A00816080937A0080917A0080688093D0
:1012B0007A001092C1001092790210927802109276
:1012C0007B0210927A020E94920183EB90E090934D
:1012D000A3028093A20284EB90E09093A7028093F4
:1012E000A60210929E038091A403823018F098E029
:1012F00090939E038093A10362E370E080E090E00E
:101300000E943C026091A50389E993E00E947B035F
:1013100068EE73E080E090E00E943C0260E389E9BF
:1013200093E00E949E040BE416E4C8010197F1F7D4
:1013300060E389E993E00E949E04C8010197F1F7F8
:1013400060E389E993E00E949E0483E592E00197BF
:10135000F1F760E289E993E00E949E0460919E03A8
:10136000606240E089E993E00E94B70484E08093E2
:101370009F0340E06CE089E993E00E94B70440E0FD
:1013800061E089E993E00E94B7048BE39FE1019754
:10139000F1F78091A203882321F060E080E00E94B1
:1013A000CE0412E01093A00340E066E089E993E0E8
:1013B0000E94B70440E062E089E993E00E94B7042C
:1013C0008BE39FE10197F1F788E08093A50360E04C
:1013D00089E993E00E947B0361E08CE00E94D101E7
:1013E00061E083E00E94D10160E08EE00E94D101C3
:1013F00060E08FE00E94D10160E080E10E94D101B5
:1014000060E081E10E94D101E0910C03F0910D03B5
:101410001083E0910803F09109031082E0910A0320
:10142000F0910B038FEC808310921403E091100372
:10143000F091110386E08083E0910E03F0910F0399
:10144000808180618083E0910E03F0910F038081A1
:1014500088608083E0910E03F0910F0380818068A3
:101460008083E0910E03F0910F0380818F7D808354
:101470008EE00E9402028FE00E94020280E10E9440
:10148000020281E10E940202442443949CEF592EFF
:1014900066246A94762C22EBE22E20E0F22E3EE9BE
:1014A000C32E30E0D32E4AE8A42E40E0B42E809123
:1014B0002C020E9402029C01990F440B550B2F5FD6
:1014C000334041095109A4E6B0E00E94340DA30164
:1014D00092010E94150DBA01A901CE0107960E9442
:1014E000B8056EED71E0CE010D960E944206BE0178
:1014F000695F7F4FCE010D960E948405BC01CE012D
:1015000001960E94280641E050E070E060E0CE01C4
:1015100001960E945B06CE0101960E945306CE0101
:101520000D960E945306CE0107960E94530681E154
:101530000E9402029C01990F440B550B2F5F334010
:1015400041095109A4E6B0E00E94340DA3019201C3
:101550000E94150DBA01A901CE0101960E94B8059D
:1015600081E10E940202BC01CE0107960E94F005B3
:1015700080E10E9402029C01990F440B550B2F5FE2
:10158000334041095109A4E6B0E00E94340DA301A3
:1015900092010E94150DBA01A901CE010D960E947B
:1015A000B80580E10E940202BC01CE0143960E9470
:1015B000F0058FE00E9402029C01990F440B550B2D
:1015C0002F5F334041095109A4E6B0E00E94340D79
:1015D000A30192010E94150DBA01A901CE014996FD
:1015E0000E94B8058FE00E940202BC01CE014F9616
:1015F0000E94F0058EE00E9402029C01990F440BAC
:10160000550B2F5F334041095109A4E6B0E00E9419
:10161000340DA30192010E94150DBA01A901CE015A
:1016200085960E94B8058EE00E940202BC01CE01A0
:101630008B960E94F0056AEE71E0CE01C1960E9481
:101640004206BE01655D7F4FCE01C1960E948405B2
:1016500064EF71E00E946E05BE016B5D7F4F0E94DA
:1016600084056CEF71E00E946E05BE01615E7F4FE4
:101670000E94840564EF71E00E946E05BE01675E02
:101680007F4F0E94840566E072E00E946E05BE01F5
:101690006D5E7F4F0E94840564EF71E00E946E05CD
:1016A000BE01635F7F4F0E94840560E172E00E948B
:1016B0006E05BE01695F7F4F0E94840564EF71E093
:1016C0000E946E05BE016F5F7F4F0E948405FC0182
:1016D00044815581608171818CEF92E00E946E029D
:1016E00042E050E06AE172E08CEF92E00E946E020C
:1016F000CE01C1960E945306CE018B960E945306DE
:10170000CE0185960E945306CE014F960E94530645
:10171000CE0149960E945306CE0143960E9453067D
:10172000CE010D960E945306CE0107960E945306E5
:10173000CE0101960E945306F7018491F60114919F
:10174000F501049101111AC080912B02882321F127
:1017500061E083E00E94D101E1EBF0E0E491E3304D
:1017600009F4DFC0A0F5E13009F445C0E23009F426
:10177000D2C061E083E00E94640142C081110E94F6
:101780003B01E02FF0E0EE0FFF1FE859FF4FA5915E
:10179000B4918C911823C1F280912B0281113EC02B
:1017A00061E083E00E94D10160E083E00E94640177
:1017B0008091290290912A02019790932A028093A6
:1017C0002902892B59F581E080932B0227C0E7304D
:1017D00009F4B3C0E83009F4B9C0E43051F680919F
:1017E000800080628093800080E890E090938B007E
:1017F00080938A0005C084B5806884BD80E887BD79
:101800008091290290912A02019690932A02809356
:10181000290280389E4311F410922B0280912C02F1
:101820000E9402029C01990F440B550B2F5F33401D
:1018300041095109A4E6B0E00E94340D63337843B6
:101840008F4F9F4FECF1009127021091280261E029
:101850008CE00E946401C80160E871EC0E94A70D51
:10186000665F7F4FCE0107960E94F0056DE172E042
:10187000CE010D960E944206BE01695F7F4FCE01E8
:101880000D960E948405BC01CE0101960E94280697
:1018900042E050E061E070E0CE0101960E945B06FC
:1018A000CE0101960E945306CE010D960E9453066A
:1018B000CE0107960E94530660E08CE00E9464010E
:1018C0000091270210912802011581E7180784F082
:1018D0008EE00E9402028FE00E94020280E10E94DC
:1018E000020281E10E94020210922D0210922C024B
:1018F0000F5F1F4F109328020093270280E090E0B3
:10190000892B09F4D4CD0E94D802882309F4CFCDC5
:101910000E940000CCCD84B5806284BD80E888BD83
:101920006FCF8091800080688093800080E890E095
:10193000909389008093880063CF8091B000806885
:101940008093B00080E88093B3005ACF8091B000BC
:1019500080628093B00080E88093B40051CFBB27B1
:101960004A3031F4992322F4BDE2909581959F4F3E
:101970000C94EC0CBB272A3051F4992342F4BDE2BD
:1019800090958095709561957F4F8F4F9F4F0C94E8
:10199000CA0CBB27FA01A62F6217710581059105B4
:1019A000330B30FB66F0AA27660F771F881F991F3D
:1019B000AA1FA21710F0A21B63953850A9F7A05DCB
:1019C000AA3308F0A95DA19336F7B111B193108243
:1019D000CA010C94050DBB27FB015527AA27880FC8
:1019E000991FAA1FA41710F0A41B83955051B9F793
:1019F000A05DAA3308F0A95DA193009779F7B11112
:101A0000B1931192CB010C94050DDC01FC01672F01
:101A100071917723E1F7329704C07C916D937083C5
:101A20006291AE17BF07C8F30895052E97FB1EF409
:101A300000940E942C0D57FD07D00E94760D07FCE4
:101A400003D04EF40C942C0D509540953095219573
:101A50003F4F4F4F5F4F08959095809570956195DA
:101A60007F4F8F4F9F4F08950E94980DA59F900D17
:101A7000B49F900DA49F800D911D112408952F9265
:101A80003F924F925F926F927F928F929F92AF920E
:101A9000BF92CF92DF92EF92FF920F931F93CF935B
:101AA000DF93CDB7DEB7CA1BDB0B0FB6F894DEBFF2
:101AB0000FBECDBF09942A88398848885F846E8418
:101AC0007D848C849B84AA84B984C884DF80EE8062
:101AD000FD800C811B81AA81B981CE0FD11D0FB66B
:101AE000F894DEBF0FBECDBFED010895A1E21A2E1E
:101AF000AA1BBB1BFD010DC0AA1FBB1FEE1FFF1FB2
:101B0000A217B307E407F50720F0A21BB30BE40B01
:101B1000F50B661F771F881F991F1A9469F7609548
:101B20007095809590959B01AC01BD01CF01089502
:101B3000A29FB001B39FC001A39F700D811D11240E
:101B4000911DB29F700D811D1124911D089597FB69
:101B5000072E16F4009407D077FD09D00E94BB0D24
:101B600007FC05D03EF4909581959F4F08957095A0
:101B700061957F4F0895AA1BBB1B51E107C0AA1FA7
:101B8000BB1FA617B70710F0A61BB70B881F991F1E
:101B90005A95A9F780959095BC01CD010895EE0F57
:101BA000FF1F0590F491E02D09940F931F93CF939D
:101BB000DF938230910510F482E090E0E091A80379
:101BC000F091A90330E020E0B0E0A0E0309799F474
:101BD0002115310509F44AC0281B390B2430310581
:101BE000D8F58A819B816115710589F1FB01938389
:101BF0008283FE0111C04081518102811381481707
:101C00005907E0F04817590799F4109761F01296B8
:101C10000C93129713961C933296CF01DF91CF91BC
:101C20001F910F9108950093A8031093A903F4CF77
:101C30002115310551F04217530738F0A901DB0196
:101C40009A01BD01DF01F801C1CFEF01F9CF9093F7
:101C5000A9038093A803CDCFFE01E20FF31F819368
:101C600091932250310939832883D7CF2091A6033D
:101C70003091A703232B41F420915201309153015D
:101C80003093A7032093A603209150013091510176
:101C90002115310541F42DB73EB7409154015091C3
:101CA0005501241B350BE091A603F091A703E21721
:101CB000F307A0F42E1B3F0B2817390778F0AC016F
:101CC0004E5F5F4F2417350748F04E0F5F1F50934C
:101CD000A7034093A603819391939FCFF0E0E0E0A8
:101CE0009CCFCF93DF930097E9F0FC0132971382EA
:101CF0001282A091A803B091A903ED0130E020E089
:101D00001097A1F420813181820F931F2091A603A7
:101D10003091A7032817390709F061C0F093A70392
:101D2000E093A603DF91CF910895EA01CE17DF0774
:101D3000E8F54A815B819E0141155105B1F7E90142
:101D4000FB83EA8349915991C40FD51FEC17FD0716
:101D500061F4808191810296840F951FE901998336
:101D60008883828193819B838A83F0E0E0E01296EE
:101D70008D919C9113970097B9F52D913C911197F6
:101D8000CD010296820F931F2091A6033091A703E5
:101D90002817390739F6309751F51092A903109298
:101DA000A803B093A703A093A603BCCFD383C28399
:101DB00040815181840F951FC817D90761F44E5F88
:101DC0005F4F88819981480F591F518340838A81D1
:101DD0009B81938382832115310509F0B0CFF09365
:101DE000A903E093A8039ECFFD01DC01C0CF1382BD
:101DF0001282D7CFB0E0A0E0E0E0FFE00C94410D0C
:101E00008C01009751F4CB010E94D50D8C01C801C3
:101E1000CDB7DEB7E0E10C945D0DFC01E60FF71FD6
:101E20009C0122503109E217F30708F49DC0D90143
:101E3000CD91DC911197C617D70798F0C530D10521
:101E400030F3CE0104978617970708F3C61BD70B0C
:101E50002297C193D1936D937C93CF010E94710E11
:101E6000D6CF5B01AC1ABD0A4C018C0E9D1EA09111
:101E7000A803B091A903512C412CF12CE12C10970F
:101E800031F58091A6039091A7038815990509F073
:101E90005CC04616570608F058C0809150019091DA
:101EA0005101009741F48DB79EB740915401509174
:101EB0005501841B950BE817F90708F055C0F093FE
:101EC000A703E093A603F90171836083A0CF8D91EE
:101ED0009C91119712966C90129713967C90139781
:101EE000A815B90559F56C0142E0C40ED11CCA14FD
:101EF000DB0420F1AC014A195B09DA01129615974F
:101F000080F06282738251834083D9016D937C9308
:101F1000E114F10471F0D7011396FC93EE9312973C
:101F200076CF22968C0F9D1FF90191838083F30158
:101F3000EFCFF093A903E093A80369CF48165906A1
:101F400008F42C017D01D3019ACFCB010E94D50D5D
:101F50007C01009749F0AE01B8010E94B70FC8019B
:101F60000E94710E870153CF10E000E050CFFB01BB
:101F7000DC0102C001900D9241505040D8F7089505
:101F8000FB01DC0101900D920020E1F70895F89427
:021F9000FFCF81
:101F9200202020202020202020202020202020203F
:101FA200202020202020202020202020202020202F
:101FB200202020202020202020202020202020201F
:101FC200202020202020202020202020202020200F
:101FD20020202020202020202020202020202020FF
:101FE2000000AA03800000004000140054002020DA
:101FF20020202020202020202020202020202020DF
:1020020020202020202020202020202020202020CE
:1020120020202020202020202020202020202020BE
:1020220020202020202020202020202020202020AE
:1020320020202020202020202020202020200000DE
:1020420000000C01DF006304B500D800C500B60033
:10205200000000000E036E029B025B03CC02AA0288
:10206200BE020000000002056E026304620466758F
:10207200677469676865643A20000A73656E736FF6
:1020820072313A0020202020202020000A73656E41
:10209200736F72323A000A73656E736F72333A006D
:1020A2000A73656E736F72343A000D0A0076616EC0
:0620B2006465723A200093
:00000001FF
