:100000000C945D000C9485000C9485000C94850084
:100010000C9485000C9485000C9485000C9485004C
:100020000C9485000C9485000C9485000C9485003C
:100030000C9485000C9485000C9485000C9485002C
:100040000C948B060C9485000C94FB060C94D5063E
:100050000C9485000C9485000C9485000C9485000C
:100060000C946C050C94850000000000240027000F
:100070002A0000000000250028002B0004040404CE
:100080000404040402020202020203030303030342
:10009000010204081020408001020408102001021F
:1000A00004081020000000080002010000030407FB
:1000B00000000000000000002D0711241FBECFEF3C
:1000C000D8E0DEBFCDBF11E0A0E0B1E0E2EAF9E1A7
:1000D00002C005900D92AE3EB107D9F723E0AEEE17
:1000E000B1E001C01D92AB36B207E1F710E0CDE5FB
:1000F000D0E004C02197FE010E94D70ACC35D10779
:10010000C9F70E9476070C94CF0C0C94000080E491
:1001100080937C0080917A00806480937A00809143
:100120007A0086FDFCCF8091780090917900089547
:1001300020916502260F3327331F21323105ECF45D
:1001400020918B02FC0190E080E0243069F082E095
:100150000895A09165022191AC014D5B5D4FA40F04
:10016000B52FB11D2C930196861798F380916502E7
:10017000680F6093650280E0089581E00895089516
:1001800008950895E0913A0280913902E81730F419
:10019000F0E0E75EFD4F808190E008958FEF9FEFE4
:1001A000089590913A02809139022FEF3FEF98170E
:1001B00048F4E92FF0E0E75EFD4F208130E09F5FDB
:1001C00090933A02C90108958091390290913A02C0
:1001D000891B990B0895CF92DF92EF92FF920F93B4
:1001E0001F93CF93DF937C01CB018A0120911802EA
:1001F000222389F0EB016B01C40ED51ECC15DD0561
:1002000069F06991D701ED91FC910190F081E02DA9
:10021000C7010995F3CF642F0E949800C801DF91B0
:10022000CF911F910F91FF90EF90DF90CF900895A5
:10023000CF93DF931F92CDB7DEB769832091180269
:100240002223F9F020913B02203258F021E030E0E7
:10025000FC013383228390E080E00F90DF91CF9107
:10026000089580913C02E82FF0E0E850FE4F99811C
:1002700090838F5F80933C0280933B0281E090E00B
:10028000ECCF61E0CE0101960E949800F7CF90E09C
:10029000FC01EC55FF4F2491FC01E057FF4F3491D6
:1002A000FC01E458FF4FE491EE23C9F0222339F01A
:1002B000233001F1A8F4213019F1223029F1F0E0C6
:1002C000EE0FFF1FEE58FF4FA591B4918FB7F89432
:1002D000EC91611126C030953E233C938FBF089569
:1002E0002730A9F02830C9F0243049F780918000E8
:1002F0008F7D03C0809180008F7780938000DFCF57
:1003000084B58F7784BDDBCF84B58F7DFBCF8091A3
:10031000B0008F778093B000D2CF8091B0008F7DF6
:10032000F9CF3E2BDACF10928B0281E080938D02C1
:1003300010928C0261E082E10E94470161E083E15A
:100340000E944701E9EBF0E080818E7F808380810D
:100350008D7F808388E48093B80085E48093BC001F
:100360000895CF93DF9391E0909342028823B9F0F0
:10037000C091B800D091BA008091BC008A7B809374
:10038000BC0060E082E10E94470160E083E10E94DE
:1003900047010E949301D093BA00C093B800DF9147
:1003A000CF9108953FB7F8948091F4019091F501B1
:1003B000A091F601B091F70126B5A89B05C02F3F8B
:1003C00019F00196A11DB11D3FBFBA2FA92F982F7B
:1003D0008827BC01CD01620F711D811D911D42E076
:1003E000660F771F881F991F4A95D1F708958F923E
:1003F0009F92AF92BF92CF92DF92EF92FF924B010A
:100400005C010E94D2016B017C010E94D2016C1937
:100410007D098E099F09683E734081059105A8F307
:1004200021E0821A9108A108B10888EEC80E83E085
:10043000D81EE11CF11C81149104A104B10429F718
:10044000FF90EF90DF90CF90BF90AF909F908F90F4
:100450000895AF92BF92CF92DF92EF92FF920F93E7
:100460001F93CF93DF936C017B018B01040F151F4A
:10047000EB015E01AE18BF08C017D10759F06991B2
:10048000D601ED91FC910190F081E02DC601099516
:10049000892B79F7C501DF91CF911F910F91FF90C3
:1004A000EF90DF90CF90BF90AF900895FC01538DF7
:1004B000448D252F30E0842F90E0821B930B54173E
:1004C00010F0CF96089501970895FC01918D828DCB
:1004D000981761F0A28DAE0FBF2FB11D5D968C9164
:1004E000928D9F5F9F73928F90E008958FEF9FEFA3
:1004F0000895FC01918D828D981731F0828DE80F5F
:10050000F11D858D90E008958FEF9FEF0895FC0118
:10051000918D228D892F90E0805C9F4F821B9109E5
:100520008F73992708958DEB92E00E94870221E056
:10053000892B09F420E0822F089580E090E0892B38
:1005400029F00E94930281110C9400000895FC018F
:10055000A48DA80FB92FB11DA35ABF4F2C91848D24
:1005600090E001968F739927848FA689B7892C9381
:10057000A089B1898C91837080648C93938D848DD4
:10058000981306C00288F389E02D80818F7D8083D7
:100590000895EF92FF920F931F93CF93DF93EC0197
:1005A00081E0888F9B8D8C8D98131AC0E889F9891A
:1005B000808185FF15C09FB7F894EE89FF8960831D
:1005C000E889F98980818370806480839FBF81E09E
:1005D00090E0DF91CF911F910F91FF90EF900895E0
:1005E000F62E0B8D10E00F5F1F4F0F731127E02EBB
:1005F0008C8D8E110CC00FB607FCFACFE889F989F3
:10060000808185FFF5CFCE010E94A702F1CFEB8D4F
:10061000EC0FFD2FF11DE35AFF4FF0829FB7F894C6
:100620000B8FEA89FB8980818062CFCFCF93DF93E4
:10063000EC01888D8823B9F0AA89BB89E889F989FA
:100640008C9185FD03C0808186FD0DC00FB607FC2F
:10065000F7CF8C9185FFF2CF808185FFEDCFCE0162
:100660000E94A702E9CFDF91CF910895CF92DF9248
:10067000EF92FF920F931F93CF93DF93FC01C481FE
:1006800021E020931802C093EE0110923C021092D8
:100690003B028485682B81EB92E00E941801D09187
:1006A0003B02D13208F092C00E94D2016B017C0162
:1006B00080918B02811165C082E080938B0281E082
:1006C00080938D028FEF80938A021092AF02D093B5
:1006D000AE02A8EFB1E0EEE8F2E080E0D81385C00A
:1006E0001092B0028091B002CC0FC82BC093B00220
:1006F00080918C02813009F07CC010928C020E94A3
:10070000D2016B017C018091B0028093BB0080918B
:100710003E0290913F02A0914002B0914102892B8C
:100720008A2B8B2B99F00E94D20100913E021091EE
:100730003F0220914002309141026C197D098E09DF
:100740009F090617170728073907E0F18091BC00B9
:1007500083FDD9CF85EC8093BC000E94D2016B0150
:100760007C0180918B02823009F445C080918A021D
:100770008F3F61F180918A02803241F180918A023B
:1007800025C080913E0290913F02A0914002B0911D
:100790004102892B8A2B8B2B09F48ACF0E94D2012C
:1007A00000913E0210913F0220914002309141029F
:1007B0006C197D098E099F09061717072807390745
:1007C00008F076CF80913D020E94B10110923C0268
:1007D00010923B0210921802DF91CF911F910F915E
:1007E000FF90EF90DF90CF9008959D9191938F5F50
:1007F00075CF85EEB0CF80913E0290913F02A091DF
:100800004002B0914102892B8A2B8B2B09F4A9CF8E
:100810000E94D20100913E0210913F0220914002BD
:10082000309141026C197D098E099F09061717073F
:100830002807390708F095CFC5CF089590E080E0EC
:1008400008958F929F92AF92BF920F931F93CF9371
:10085000DF93CDB7DEB7A1970FB6F894DEBF0FBE1A
:10086000CDBF19A2423008F44AE08E010F5D1F4F40
:10087000842E912CB12CA12CA50194010E94A60AD2
:10088000E62FB901CA01EA3044F5E05DD801EE93E4
:100890008D01232B242B252B79F790E080E01097F6
:1008A00069F0FD0101900020E9F73197AF014A1B83
:1008B0005B0BBD018DEB92E00E942902A1960FB661
:1008C000F894DEBF0FBECDBFDF91CF911F910F9186
:1008D000BF90AF909F908F900895E95CD7CF85ED42
:1008E0008093BC0080913E0290913F02A091400213
:1008F000B09141020796A11DB11D23E0B695A795C1
:10090000979587952A95D1F72091BC0024FD03C0C7
:1009100010928B02089540913E0250913F026091E7
:10092000400270914102452B462B472B69F30097FB
:10093000A105B10541F025E32A95F1F700000197E3
:10094000A109B109E1CF80913D020C94B1010F934F
:100950001F93CF938C01C62F0E9436036C2F6460C7
:10096000C8010E9436036C2F6B7FC8010E943603BA
:1009700083EC90E00197F1F7CF911F910F910895CB
:100980000F931F93CF93DF938C01D62FC42F607FDB
:10099000642B0E94A70480E1D89FB00111246C2B26
:1009A000C801DF91CF911F910F910C94A704CF93B1
:1009B000DF93CDB7DEB728970FB6F894DEBF0FBE32
:1009C000CDBF98E0E6E5F1E0DE01119601900D92D1
:1009D0009A95E1F790916203961710F46FEF690F03
:1009E000262F30E0220F331F41E050E04C0F5D1FF7
:1009F000240F351FF9016081680F606840E08AE5C7
:100A000093E028960FB6F894DEBF0FBECDBFDF91FE
:100A1000CF910C94C00441E00E94C00481E090E0BA
:100A20000895FC0180819181009711F00C94790B5D
:100A300008950F931F93CF93DF93EC0188819981E1
:100A4000009759F02A813B812617370730F081E063
:100A5000DF91CF911F910F9108958B016F5F7F4FB1
:100A60000E94020C009759F0998388831B830A83A4
:100A70002C813D81232B59F7FC011082E8CF80E0C7
:100A8000E7CFEF92FF920F931F93CF93DF93EC0189
:100A90007B018A01BA010E941905288139818111DF
:100AA00014C02115310519F0C9010E94790B198272
:100AB00018821D821C821B821A82CE01DF91CF9187
:100AC0001F910F91FF90EF9008951D830C83B70144
:100AD000C9010E94C80CF1CF1F920F920FB60F925E
:100AE00011242F933F934F935F936F937F938F9333
:100AF0009F93AF93BF93EF93FF938091B900887F4B
:100B0000803609F44AC0F0F5883209F4A7C018F518
:100B1000803109F49BC0B8F4882309F4F9C0883007
:100B200009F494C0FF91EF91BF91AF919F918F9184
:100B30007F916F915F914F913F912F910F900FBED9
:100B40000F901F901895883109F488C0803251F7B2
:100B500080938A0214C0803409F49DC040F480332D
:100B6000B9F38833F9F680938A0285ECB0C08035FA
:100B700009F485C0883509F496C0883499F60E9436
:100B80006F04D0CF883909F48CC038F5883729F044
:100B900050F4883611F0803729F683E080938B0279
:100BA0001092890257C0883809F47BC0803919F047
:100BB000803809F0B7CF80918902803208F071C087
:100BC000E091890281E08E0F809389028091BB00C1
:100BD000F0E0E759FD4F80833DC0803B39F0E0F401
:100BE000803A09F479C0883A09F09CCF84E0809378
:100BF0008B021092660210926502E0916302F091FE
:100C0000640209958091650281110FC081E0809393
:100C100065021092430209C0803C09F4A6CF883CCB
:100C200009F4A3CF883B09F07DCFE091660281E013
:100C30008E0F80936602F0E0ED5BFD4F8081809324
:100C4000BB00909166028091650229C08091B0023C
:100C50008093BB0085EC8093BC0064CF9091AF0281
:100C60008091AE02981758F5E091AF0281E08E0FA7
:100C70008093AF02F0E0E257FD4F8081E9CFE09131
:100C8000AF0281E08E0F8093AF028091BB00F0E055
:100C9000E257FD4F80839091AF028091AE0298178A
:100CA000C8F285E8D8CFE091AF0281E08E0F809343
:100CB000AF028091BB00F0E0E257FD4F808380914E
:100CC0008D0281115CCF81E080938C0284EA809355
:100CD000BC0010928B0226CF85EC8093BC00109252
:100CE0008B0280918902803230F4E0918902F0E039
:100CF000E759FD4F10826091890270E0E091670230
:100D0000F091680289E692E00995109289020ACF73
:100D100010928A0234CF1F920F920FB60F921124B5
:100D20002F933F938F939F93AF93BF938091F00145
:100D30009091F101A091F201B091F3013091EF0196
:100D400023E0230F2D3758F50196A11DB11D2093E7
:100D5000EF018093F0019093F101A093F201B09321
:100D6000F3018091F4019091F501A091F601B09109
:100D7000F7010196A11DB11D8093F4019093F50137
:100D8000A093F601B093F701BF91AF919F918F911E
:100D90003F912F910F900FBE0F901F90189526E84E
:100DA000230F0296A11DB11DD2CF1F920F920FB635
:100DB0000F9211242F933F934F935F936F937F93E1
:100DC0008F939F93AF93BF93EF93FF938DEB92E03D
:100DD0000E94A702FF91EF91BF91AF919F918F91D8
:100DE0007F916F915F914F913F912F910F900FBE27
:100DF0000F901F9018951F920F920FB60F9211240B
:100E00002F938F939F93EF93FF93E091CD02F091F7
:100E1000CE028081E091D302F091D40282FD1BC00A
:100E200090818091D6028F5F8F732091D7028217B5
:100E300041F0E091D602F0E0E354FD4F958F8093AE
:100E4000D602FF91EF919F918F912F910F900FBE3E
:100E50000F901F9018958081F4CFE1EBF2E01382A0
:100E6000128288EE93E0A0E0B0E084839583A683AD
:100E7000B78322EB31E031832083EDEBF2E0138284
:100E8000128284839583A683B78384EC91E0918357
:100E9000808385EC90E09587848784EC90E0978749
:100EA000868780EC90E0918B808B81EC90E0938B37
:100EB000828B82EC90E0958B848B86EC90E0978B14
:100EC000868B118E128E138E148EEAE5F3E0138258
:100ED000128286ED91E091838083118687E284837C
:100EE00084E1828784E0838714860895CF93DF931B
:100EF000CDB7DEB7C256D1090FB6F894DEBF0FBE2C
:100F0000CDBF789484B5826084BD84B5816084BD92
:100F100085B5826085BD85B5816085BD80916E0097
:100F2000816080936E0010928100809181008260C8
:100F30008093810080918100816080938100809105
:100F400080008160809380008091B10084608093F4
:100F5000B1008091B00081608093B00080917A00F0
:100F6000846080937A0080917A00826080937A0016
:100F700080917A00816080937A0080917A00806805
:100F800080937A001092C10010923A0210923902B6
:100F900010923C0210923B020E9493018FEB90E072
:100FA000909364028093630280EC90E090936802D7
:100FB0008093670210925F0380916503823018F07E
:100FC00098E090935F038093620362E370E080E0B7
:100FD00090E00E94F701609166038AE593E00E9429
:100FE000360368EE73E080E090E00E94F70160E372
:100FF0008AE593E00E94A7040BE416E4C801019778
:10100000F1F760E38AE593E00E94A704C801019725
:10101000F1F760E38AE593E00E94A70483E592E09C
:101020000197F1F760E28AE593E00E94A7046091DE
:101030005F03606240E08AE593E00E94C00484E0C0
:101040008093600340E06CE08AE593E00E94C00476
:1010500040E061E08AE593E00E94C0048BE39FE1F9
:101060000197F1F780916303882321F060E080E02D
:101070000E94D70482E08093610340E066E08AE545
:1010800093E00E94C00440E062E08AE593E00E94A1
:10109000C0048BE39FE10197F1F788E0809366033A
:1010A00060E08AE593E00E943603EDE9F0E02491E8
:1010B000E9E8F0E08491882399F090E0880F991F87
:1010C000FC01E859FF4FA591B491FC01EE58FF4F88
:1010D000859194918FB7F894EC91E22BEC938FBFAC
:1010E000E091CD02F091CE0282E08083E091C902CE
:1010F000F091CA021082E091CB02F091CC028FEC09
:1011000080831092D502E091D102F091D20286E064
:101110008083E091CF02F091D00280818061808352
:10112000E091CF02F091D002808188608083E091CD
:10113000CF02F091D002808180688083E091CF025D
:10114000F091D00280818F7D8083442443949CEF72
:10115000592E66246A94762C8E010F5F1F4F0E94D1
:10116000870069961FAE1EAE69976B961FAE1EAEC6
:101170006B976D961FAE1EAE6D979C01990F440B39
:10118000550B2F5F334041095109A4E6B0E00E949E
:10119000640AA30192010E94450ACA01B9012AE02A
:1011A000A8010E94040AF80101900020E9F7319794
:1011B000AF01401B510BB801CE01895A9F4F0E94CD
:1011C00041056F961FAE1EAE6F97A1961FAE1EAE65
:1011D000A197A3961FAE1EAEA3974BE050E06EED15
:1011E00071E0CE01835A9F4F0E9441056996CEACB3
:1011F000DFAC6997C114D10409F47AC06D96EEACE6
:10120000FFAC6D97E114F10401F1A3968EAD9FAD93
:10121000A397E80EF91EB701CE01835A9F4F0E9493
:101220001905882309F464C06F962EAD3FAD6F9702
:10123000A3968EAD9FADA397B601820F931F0E9418
:10124000C80CA396FFAEEEAEA39763961FAE1EAE7C
:10125000639765961FAE1EAE659767961FAE1EAE6E
:1012600067976F966EAD7FAD6F976115710549F009
:10127000A3964EAD5FADA397CE018F5A9F4F0E94AC
:1012800041058DB69EB680E5EEE5F1E0D80101900E
:101290000D928A95E1F767968EAD9FAD679701969F
:1012A0002DB73EB7281B390B0FB6F8943EBF0FBEC3
:1012B0002DBF8DB79EB701967C0163966EAD7FAD55
:1012C00063970E94C80CCE014796D701F7010190A1
:1012D0000020E9F73197EE19FF099D012E193F090A
:1012E0002E173F07D0F42D91FC012193CF01EECFB3
:1012F0006F968EAD9FAD6F97009711F00E94790B9E
:101300006F961FAE1EAE6F97A3961FAE1EAEA3972D
:10131000A1961FAE1EAEA19798CF580180E0C82EAF
:1013200081E0D82E312CF12CE12CF501EE0DFF1DC2
:101330002080F601EE0DFF1D8081281649F0632DF7
:101340008E2D0E94D704622D8AE593E00E940B0542
:10135000FFEFEF1AFF0A24E1E216F10431F734E15E
:10136000A30EB11C84E1C80ED11C339494E0391251
:10137000DACF80E5F801A0E0B1E001900D928A9506
:10138000E1F70FB6F8949EBE0FBE8DBECE018F5A08
:101390009F4F0E941105CE01835A9F4F0E94110555
:1013A000CE01895A9F4F0E9411050E9487006C014F
:1013B000990FEE08FF084AE0C701B601F7FE0DC01D
:1013C0006DE28DEB92E00E94C90266277727CB0180
:1013D0006C197D098E099F094AE00E94210442E0B0
:1013E00050E06AEE71E08DEB92E00E942902E0E0AD
:1013F000F0E0EF2B09F4B3CE0E949302882309F4A6
:10140000AECE0E940000ABCEBB272A3051F4992308
:1014100042F4BDE290958095709561957F4F8F4F16
:101420009F4F0C94140ABB27FA01A62F621771056F
:1014300081059105330B30FB66F0AA27660F771FF5
:10144000881F991FAA1FA21710F0A21B639538507E
:10145000A9F7A05DAA3308F0A95DA19336F7B111F1
:10146000B1931082CA010C94350ADC01FC01672F8C
:1014700071917723E1F7329704C07C916D9370836B
:101480006291AE17BF07C8F30895052E97FB1EF4AF
:1014900000940E945C0A57FD07D00E94A60A07FC30
:1014A00003D04EF40C945C0A5095409530952195EC
:1014B0003F4F4F4F5F4F0895909580957095619580
:1014C0007F4F8F4F9F4F08950E94C80AA59F900D90
:1014D000B49F900DA49F800D911D112408952F920B
:1014E0003F924F925F926F927F928F929F92AF92B4
:1014F000BF92CF92DF92EF92FF920F931F93CF9301
:10150000DF93CDB7DEB7CA1BDB0B0FB6F894DEBF97
:101510000FBECDBF09942A88398848885F846E84BD
:101520007D848C849B84AA84B984C884DF80EE8007
:10153000FD800C811B81AA81B981CE0FD11D0FB610
:10154000F894DEBF0FBECDBFED010895A1E21A2EC3
:10155000AA1BBB1BFD010DC0AA1FBB1FEE1FFF1F57
:10156000A217B307E407F50720F0A21BB30BE40BA7
:10157000F50B661F771F881F991F1A9469F76095EE
:101580007095809590959B01AC01BD01CF010895A8
:10159000A29FB001B39FC001A39F700D811D1124B4
:1015A000911DB29F700D811D1124911D0895EE0FA4
:1015B000FF1F0590F491E02D09940F931F93CF9393
:1015C000DF938230910510F482E090E0E0916903AE
:1015D000F0916A0330E020E0B0E0A0E0309799F4A9
:1015E0002115310509F44AC0281B390B2430310577
:1015F000D8F58A819B816115710589F1FB0193837F
:101600008283FE0111C040815181028113814817FC
:101610005907E0F04817590799F4109761F01296AE
:101620000C93129713961C933296CF01DF91CF91B2
:101630001F910F9108950093690310936A03F4CFEB
:101640002115310551F04217530738F0A901DB018C
:101650009A01BD01DF01F801C1CFEF01F9CF9093ED
:101660006A0380936903CDCFFE01E20FF31F8193DC
:1016700091932250310939832883D7CF2091670372
:1016800030916803232B41F4209152013091530192
:1016900030936803209367032091500130915101EA
:1016A0002115310541F42DB73EB7409154015091B9
:1016B0005501241B350BE0916703F0916803E21795
:1016C000F307A0F42E1B3F0B2817390778F0AC0165
:1016D0004E5F5F4F2417350748F04E0F5F1F509342
:1016E000680340936703819391939FCFF0E0E0E01C
:1016F0009CCFCF93DF930097E9F0FC0132971382E0
:101700001282A0916903B0916A03ED0130E020E0FC
:101710001097A1F420813181820F931F20916703DC
:10172000309168032817390709F061C0F093680306
:10173000E0936703DF91CF910895EA01CE17DF07A9
:10174000E8F54A815B819E0141155105B1F7E90138
:10175000FB83EA8349915991C40FD51FEC17FD070C
:1017600061F4808191810296840F951FE90199832C
:101770008883828193819B838A83F0E0E0E01296E4
:101780008D919C9113970097B9F52D913C911197EC
:10179000CD010296820F931F209167033091680359
:1017A0002817390739F6309751F510926A031092CD
:1017B0006903B0936803A0936703BCCFD383C2834C
:1017C00040815181840F951FC817D90761F44E5F7E
:1017D0005F4F88819981480F591F518340838A81C7
:1017E0009B81938382832115310509F0B0CFF0935B
:1017F0006A03E09369039ECFFD01DC01C0CF138231
:101800001282D7CFB0E0A0E0E8E0FCE00C94710ACF
:101810008C01009751F4CB010E94DD0A8C01C801B4
:10182000CDB7DEB7E0E10C948D0AFC01E60FF71F9F
:101830009C0122503109E217F30708F49DC0D90139
:10184000CD91DC911197C617D70798F0C530D10517
:1018500030F3CE0104978617970708F3C61BD70B02
:101860002297C193D1936D937C93CF010E94790B02
:10187000D6CF5B01AC1ABD0A4C018C0E9D1EA09107
:101880006903B0916A03512C412CF12CE12C109783
:1018900031F580916703909168038815990509F0E7
:1018A0005CC04616570608F058C0809150019091D0
:1018B0005101009741F48DB79EB74091540150916A
:1018C0005501841B950BE817F90708F055C0F093F4
:1018D0006803E0936703F90171836083A0CF8D9162
:1018E0009C91119712966C90129713967C90139777
:1018F000A815B90559F56C0142E0C40ED11CCA14F3
:10190000DB0420F1AC014A195B09DA011296159744
:1019100080F06282738251834083D9016D937C93FE
:10192000E114F10471F0D7011396FC93EE93129732
:1019300076CF22968C0F9D1FF90191838083F3014E
:10194000EFCFF0936A03E093690369CF4816590615
:1019500008F42C017D01D3019ACFCB010E94DD0A4E
:101960007C01009749F0AE01B8010E94BF0CC8018C
:101970000E94790B870153CF10E000E050CFFB01AC
:10198000DC0102C001900D9241505040D8F70895FB
:10199000FB01DC0101900D920020E1F70895F8941D
:0219A000FFCF77
:1019A2002020202020202020202020202020202035
:1019B2002020202020202020202020202020202025
:1019C2002020202020202020202020202020202015
:1019D2002020202020202020202020202020202005
:1019E20020202020202020202020202020202020F5
:1019F20000006B038000000040001400540020200F
:101A020020202020202020202020202020202020D4
:101A120020202020202020202020202020202020C4
:101A220020202020202020202020202020202020B4
:101A320020202020202020202020202020202020A4
:101A420020202020202020202020202020200000D4
:101A520000001801EB001E04C100E400D100C20026
:101A620000000000C902290256021603870265021D
:101A72007902000000000B0529021E041D04667590
:0E1A8200677469676865643A20000D0A000009
:00000001FF
