:100000000C945D000C9485000C9485000C94850084
:100010000C9485000C9485000C9485000C9485004C
:100020000C9485000C9485000C9485000C9485003C
:100030000C9485000C9485000C9485000C9485002C
:100040000C949B040C9485000C9485000C94850002
:100050000C9485000C9485000C9485000C9485000C
:100060000C9480030C9485000000000024002700FD
:100070002A0000000000250028002B0004040404CE
:100080000404040402020202020203030303030342
:10009000010204081020408001020408102001021F
:1000A00004081020000000080002010000030407FB
:1000B0000000000000000000E50411241FBECFEF87
:1000C000D8E0DEBFCDBF11E0A0E0B1E0E4EDFBE0A1
:1000D00002C005900D92AE31B107D9F721E0AEE133
:1000E000B1E001C01D92A53DB207E1F710E0CDE5FA
:1000F000D0E004C02197FE010E94E205CC35D10773
:10010000C9F70E9406050C94E8050C9400002091A4
:100110007201260F3327331F21323105ECF4209171
:100120009601FC0190E080E0243069F082E00895BF
:10013000A09172012191AC014E5A5E4FA40FB52FD0
:10014000B11D2C930196861798F380917201680F68
:100150006093720180E0089581E0089508958FEF23
:100160009FEF08958FEF9FEF089580914B0190E0EE
:100170009195819591090895CF92DF92EF92FF9228
:100180000F931F93CF93DF937C01CB018A012091C2
:100190004A01222389F0EB016B01C40ED51ECC1558
:1001A000DD0569F06991D701ED91FC910190F08135
:1001B000E02DC7010995F3CF642F0E948700C80185
:1001C000DF91CF911F910F91FF90EF90DF90CF9033
:1001D0000895CF93DF931F92CDB7DEB76983209147
:1001E0004A012223F9F020914901203258F021E000
:1001F00030E0FC013383228390E080E00F90DF91B8
:10020000CF91089580914801E82FF0E0E85DFE4F1E
:10021000998190838F5F809348018093490181E0A9
:1002200090E0ECCF61E0CE0101960E948700F7CF0D
:1002300090E0FC01EC55FF4F2491FC01E057FF4F8B
:100240003491FC01E458FF4FE491EE23C9F02223DE
:1002500039F0233001F1A8F4213019F1223029F1CD
:10026000F0E0EE0FFF1FEE58FF4FA591B4918FB74E
:10027000F894EC91611126C030953E233C938FBFDA
:1002800008952730A9F02830C9F0243049F780912B
:1002900080008F7D03C0809180008F7780938000E5
:1002A000DFCF84B58F7784BDDBCF84B58F7DFBCF67
:1002B0008091B0008F778093B000D2CF8091B00052
:1002C0008F7DF9CF3E2BDACF1F93CF93DF93C1E021
:1002D000C0935101882399F1D091B8001091BA00D0
:1002E0008091BC008A7B8093BC0060E082E10E9428
:1002F000180160E083E10E94180110929601C093FA
:1003000098011092970161E082E10E94180161E07A
:1003100083E10E9418018091B9008E7F8093B9001B
:100320008091B9008D7F8093B90088E48093B800F4
:1003300085E48093BC001093BA00D093B800DF919D
:10034000CF911F9108953FB7F89480912401909127
:100350002501A0912601B091270126B5A89B05C0D3
:100360002F3F19F00196A11DB11D3FBFBA2FA92F34
:10037000982F8827BC01CD01620F711D811D911D31
:1003800042E0660F771F881F991F4A95D1F708959D
:100390008F929F92AF92BF92CF92DF92EF92FF9295
:1003A0004B015C010E94A3016B017C010E94A3012F
:1003B0006C197D098E099F09683E7340810591057E
:1003C000A8F321E0821A9108A108B10888EEC80EAE
:1003D00083E0D81EE11CF11C81149104A104B10436
:1003E00029F7FF90EF90DF90CF90BF90AF909F9054
:1003F0008F900895AF92BF92CF92DF92EF92FF92CB
:100400000F931F93CF93DF936C017B018B01040F3C
:10041000151FEB015E01AE18BF08C017D10759F0D8
:100420006991D601ED91FC910190F081E02DC6011A
:100430000995892B79F7C501DF91CF911F910F9114
:10044000FF90EF90DF90CF90BF90AF900895CF9244
:10045000DF92EF92FF920F931F93CF93DF93FC01F4
:10046000C48121E020934A01C0931E0110924801EB
:10047000109249018485682B8CEB91E00E94E90081
:10048000D0914901D13208F092C00E94A3016B01C2
:100490007C0180919601811165C082E08093960174
:1004A00081E0809398018FEF809395011092BA01BB
:1004B000D093B901A8E2B1E0E9E9F1E080E0D81316
:1004C00085C01092BB018091BB01CC0FC82BC0939B
:1004D000BB0180919701813009F07CC01092970197
:1004E0000E94A3016B017C018091BB018093BB0042
:1004F00080914D0190914E01A0914F01B09150011A
:10050000892B8A2B8B2B99F00E94A30100914D011E
:1005100010914E0120914F01309150016C197D09CD
:100520008E099F090617170728073907E0F1809100
:10053000BC0083FDD9CF85EC8093BC000E94A30151
:100540006B017C0180919601823009F445C0809155
:1005500095018F3F61F180919501803241F1809149
:10056000950125C080914D0190914E01A0914F01C0
:10057000B0915001892B8A2B8B2B09F48ACF0E94D2
:10058000A30100914D0110914E0120914F01309136
:1005900050016C197D098E099F0906171707280756
:1005A000390708F076CF80914C010E9464011092C7
:1005B00048011092490110924A01DF91CF911F9199
:1005C0000F91FF90EF90DF90CF9008959D919193C0
:1005D0008F5F75CF85EEB0CF80914D0190914E0128
:1005E000A0914F01B0915001892B8A2B8B2B09F4DC
:1005F000A9CF0E94A30100914D0110914E012091BD
:100600004F01309150016C197D098E099F09061721
:1006100017072807390708F095CFC5CF089590E050
:1006200080E0089585ED8093BC0080914D0190910C
:100630004E01A0914F01B09150010796A11DB11D2F
:1006400023E0B695A795979587952A95D1F72091A0
:10065000BC0024FD03C010929601089540914D0105
:1006600050914E0160914F0170915001452B462BE6
:10067000472B69F30097A105B10541F025E32A95C1
:10068000F1F700000197A109B109E1CF80914C0178
:100690000C9464010F931F93CF938C01C62F0E947B
:1006A00027026C2F6460C8010E9427026C2F6B7FA9
:1006B000C8010E94270283EC90E00197F1F7CF91E7
:1006C0001F910F9108950F931F93CF93DF938C0188
:1006D000D62FC42F607F642B0E944A0380E1D89FED
:1006E000B00111246C2BC801DF91CF911F910F91A4
:1006F0000C944A0341E00E94630381E090E0089576
:100700001F920F920FB60F9211242F933F934F9386
:100710005F936F937F938F939F93AF93BF93EF9369
:10072000FF938091B900887F803609F44AC0F0F5C4
:10073000883209F4A5C018F5803109F499C0B8F4DD
:10074000882309F4F5C0883009F492C0FF91EF9135
:10075000BF91AF919F918F917F916F915F914F91D9
:100760003F912F910F900FBE0F901F9018958831D9
:1007700009F486C0803251F78093950114C080340B
:1007800009F49BC040F48033B9F38833F9F68093C1
:10079000950185ECAEC0803509F483C0883509F435
:1007A00094C0883499F60E941203D0CF883909F496
:1007B0008AC038F5883729F050F4883611F0803730
:1007C00029F683E0809396011092940155C08838F1
:1007D00009F479C0803919F0803809F0B7CF8091D9
:1007E0009401803208F06FC0E091940181E08E0F97
:1007F000809394018091BB00F0E0EC58FE4F808321
:100800003BC0803B39F0D0F4803A09F477C0883A95
:1008100009F09CCF84E080939601109273011092AE
:100820007201F0E0E0E009958091720181110FC042
:1008300081E0809372011092520109C0803C09F45A
:10084000A8CF883C09F4A5CF883B09F07FCFE09181
:10085000730181E08E0F80937301F0E0EE5AFE4F3A
:1008600080818093BB00909173018091720129C0B7
:100870008091BB018093BB0085EC8093BC0066CF68
:100880009091BA018091B901981758F5E091BA0199
:1008900081E08E0F8093BA01F0E0E756FE4F808131
:1008A000E9CFE091BA0181E08E0F8093BA01809187
:1008B000BB00F0E0E756FE4F80839091BA01809133
:1008C000B9019817C8F285E8D8CFE091BA0181E064
:1008D0008E0F8093BA018091BB00F0E0E756FE4F87
:1008E00080838091980181115ECF81E08093970190
:1008F00084EA8093BC001092960128CF85EC809307
:10090000BC001092960180919401803230F4E09105
:100910009401F0E0EC58FE4F10826091940170E079
:1009200084E791E0F0E0E0E00995109294010ECFA9
:100930001092950138CF1F920F920FB60F9211248B
:100940002F933F938F939F93AF93BF9380912001F9
:1009500090912101A0912201B091230130911F01BA
:1009600023E0230F2D3758F50196A11DB11D2093CB
:100970001F018093200190932101A0932201B09345
:1009800023018091240190912501A0912601B0912D
:1009900027010196A11DB11D80932401909325018B
:1009A000A0932601B0932701BF91AF919F918F91A2
:1009B0003F912F910F900FBE0F901F90189526E832
:1009C000230F0296A11DB11DD2CFECEBF1E01382F3
:1009D000128288EE93E0A0E0B0E084839583A68342
:1009E000B78384E091E091838083E8ECF1E01382A7
:1009F000128286E191E091838083118687E284836D
:100A000084E1828784E0838714860895789484B58E
:100A1000826084BD84B5816084BD85B5826085BDFA
:100A200085B5816085BD80916E00816080936E0088
:100A3000109281008091810082608093810080917A
:100A4000810081608093810080918000816080932B
:100A500080008091B10084608093B1008091B000EB
:100A600081608093B00080917A00846080937A00E6
:100A700080917A00826080937A0080917A00816010
:100A800080937A0080917A00806880937A00109237
:100A9000C1008091CD0188608093CD0114E0109356
:100AA000D00162E370E080E090E00E94C8016091B4
:100AB000D40188EC91E00E94270268EE73E080E0A8
:100AC00090E00E94C80160E388EC91E00E944A0334
:100AD000CBE4D6E4CE010197F1F760E388EC91E036
:100AE0000E944A032197F1F760E388EC91E00E94AD
:100AF0004A0383E592E00197F1F760E288EC91E028
:100B00000E944A036091CD01606240E088EC91E070
:100B10000E9463031093CE0140E06CE088EC91E00A
:100B20000E94630340E061E088EC91E00E9463036F
:100B30008BE39FE10197F1F78091D101882331F098
:100B400040E060E888EC91E00E94630382E08093DB
:100B5000CF0140E066E088EC91E00E94630340E052
:100B600062E088EC91E00E9463038BE39FE10197D0
:100B7000F1F71092D40160E088EC91E00E94270226
:100B8000EDE9F0E02491E9E8F0E08491882399F020
:100B900090E0880F991FFC01E859FF4FA591B4918F
:100BA000FC01EE58FF4F859194918FB7F894EC912A
:100BB000E22BEC938FBFC0E0D0E02097F1F30E94CE
:100BC0000000FBCFEE0FFF1F0590F491E02D09947C
:040BD000F894FFCFC7
:100BD40000000000E900BC000F03AE00B500B20045
:0E0BE400AF00000000007A03FA010F030E03B9
:00000001FF
